{
  "_format": "hh-sol-artifact-1",
  "contractName": "PatientAudit",
  "sourceName": "contracts/PatientAudit.sol",
  "abi": [
    {
      "anonymous": false,
      "inputs": [
        {
          "indexed": true,
          "internalType": "address",
          "name": "sender",
          "type": "address"
        },
        {
          "indexed": false,
          "internalType": "bytes32",
          "name": "recordHash",
          "type": "bytes32"
        },
        {
          "indexed": false,
          "internalType": "uint256",
          "name": "timestamp",
          "type": "uint256"
        }
      ],
      "name": "RecordStored",
      "type": "event"
    },
    {
      "inputs": [
        {
          "internalType": "bytes32",
          "name": "recordHash",
          "type": "bytes32"
        }
      ],
      "name": "storeRecord",
      "outputs": [],
      "stateMutability": "nonpayable",
      "type": "function"
    }
  ],
  "bytecode": "0x6080604052348015600f57600080fd5b5061018e8061001f6000396000f3fe608060405234801561001057600080fd5b506004361061002b5760003560e01c8063671c0e5a14610030575b600080fd5b61004a600480360381019061004591906100da565b61004c565b005b3373ffffffffffffffffffffffffffffffffffffffff167f502fb55c7f7523dd29d527925d54cf8b3b341c58b25292f7ed317b8fbe4d930d824260405161009492919061012f565b60405180910390a250565b600080fd5b6000819050919050565b6100b7816100a4565b81146100c257600080fd5b50565b6000813590506100d4816100ae565b92915050565b6000602082840312156100f0576100ef61009f565b5b60006100fe848285016100c5565b91505092915050565b610110816100a4565b82525050565b6000819050919050565b61012981610116565b82525050565b60006040820190506101446000830185610107565b6101516020830184610120565b939250505056fea26469706673582212207ce3beeaf7158b0a6bcf0849420938efb4870bb9fd66aeb59d8fb3c72b23ea9864736f6c634300081c0033",
  "linkReferences": {},
  "deployedLinkReferences": {}
}